:020000041000EA
:100000000000082009010010B1090010B10900101A
:10001000B1090010B1090010B1090010B1090010B8
:10002000000000000000000000000000B109001006
:10003000B109001000000000B1090010B109001062
:10004000B1090010B1090010B1090010B109001088
:10005000B1090010B1090010B1090010B109001078
:10006000B1090010B1090010B1090010B109001068
:10007000B1090010B1090010B1090010B109001058
:10008000B1090010B1090010B1090010B109001048
:10009000B1090010B1090010B1090010B109001038
:1000A000B1090010B1090010B1090010B109001028
:1000B000B1090010B1090010B1090010B109001018
:1000C000B1090010B1090010B1090010B109001008
:1000D000B1090010B1090010B1090010B1090010F8
:1000E000B1090010B1090010B1090010B1090010E8
:1000F0000000000000000000000000000000000000
:1001000000000820090100104FF0000514484FF0CE
:10011000190140F8251013484FF0090140F8351037
:100120001148016841F4006101601048104988429B
:1001300004D0104A08C808C19142FAD30E4880F38F
:1001400008880E480E4908600E488047FEE70020E8
:100150000B49086006C881F308889047F6E700005D
:10016000048003400480024000800C400000001026
:1001700000000010640000200000082000000010B3
:1001800008ED00E0B5090010D3DEFFFF42012110A9
:10019000FF01000000000000793512AB014B036045
:1001A000704700BF6C3100107047000010B5044666
:1001B000034B0360042100F0D1FD204610BD00BFB9
:1001C0006C31001000B5ADF2544D684600F054F8A3
:1001D000044B0093044B009300200DF2544D5DF846
:1001E00004FB00BF183200106C310010014B03609B
:1001F000704700BFF8310010024A0260024A0260F4
:10020000704700BF183200106C310010024A0260C3
:10021000024A0260704700BF08320010F831001037
:1002200010B50446044B0360044B0360042100F046
:1002300095FD204610BD00BF08320010F8310010B7
:1002400010B50446034B0360042100F087FD2046EF
:1002500010BD00BFF831001010B50446044B036018
:10026000044B03604FF48A6100F078FD204610BD16
:10027000183200106C31001070B50546254B036034
:10028000254B0360112343600223C36003230361F2
:10029000172343614FF4827200211C3000F056FE98
:1002A0000F23C5F824310E23C5F828310D23C5F8D6
:1002B0002C310026C5F83461C5F83861C5F83C61B9
:1002C000C5F8406185F84461012385F8453185F81A
:1002D0004661A5F84861A5F84A6105F5A6744FF492
:1002E00040723146204600F031FEA5F84C6485F896
:1002F0004E6485F84F64234605F24C4105E0002228
:100300009A605A601A805A800C338B42F7D1284683
:1003100070BD00BF6C3100101832001070B504467B
:100320000023A0F84C34237F53B304F11C0630465D
:1003300001F0EAF8042823D9304600F0ABFF30463C
:1003400001F0E2F8B4F84C54013000F0EFFD05EB99
:10035000450504EB8505C5F85001314601F076F8F6
:10036000B4F84C34D4F81C1103EB430204EB8202C2
:10037000C2F8541101339BB2A4F84C343F2BD2D9AC
:10038000B4F84C0470BD10B4D0F83841234617229D
:100390000CE003EB430100EB81014FF00B0CA1F8E3
:1003A0004CC1A1F84E21173292B2013304F10B0176
:1003B000994203DBB0F84C149942EADC00205DF866
:1003C000044B704708B5D0F83831D0F83421D0F854
:1003D0004011024800F0D2FE08BD00BF7831001085
:1003E000D0F83431C0F8403143B9B0F84C34013B57
:1003F000C0F83431012380F844317047013BC0F824
:100400003431F7E7D0F83431C0F84031B0F84C243B
:10041000013A934206D00133C0F83431012380F809
:10042000443170470023C0F83431F7E770B5044613
:100430000E461546D0F8343103EB430300EB83033B
:10044000D3F850110C4800F099FE04F5907204F1B5
:100450001801304600F04AFA284600F081FA0123DC
:1004600084F8453184F846310023A4F84831A4F8D3
:100470004A3184F84E3470BD8431001070B50446A2
:100480000E461546D0F834110D4800F077FE04F5FD
:10049000907204F11801304600F028FA284600F066
:1004A0005FFA012384F8453184F846310022A4F82C
:1004B0004821A4F84A2184F84E2484F84F3470BDB2
:1004C00094310010B0F84C340C4AA2FB0323DB0833
:1004D0000133D0F834210A4981FB0201D217C2EB63
:1004E0006102012B00DC704700B585B0013205497F
:1004F00001A800F089FF05B05DF804FBABAAAAAA29
:10050000ABAAAA2AA8310010012900D0704708B56B
:10051000FFF7D8FF08BD000010B50446D0F834211D
:100520001B4981FB0231D317C3EB610303EB430388
:100530009B00C0F83831D0F83C21934207D0C0F876
:100540003C31012380F84531002380F8443194F890
:1005500045311BB994F8443193B910BD2046FFF7DB
:1005600012FF2046FFF72EFF01212046FFF7CCFFA8
:10057000002384F84531A4F84831A4F84A31E9E76A
:100580002046FFF71FFF002384F84431E5E700BF52
:10059000ABAAAA2A2DE9F047ADF5845D82B00646E4
:1005A0000DF58250143000F0F1F9AB4B0DF582528D
:1005B00010321360A94B13600DF58150103000F01C
:1005C00081F90DF5815210320DF58251103103A8D9
:1005D00000F0AEF93046FFF7A1FE80B2A6F84C0459
:1005E00028B100273C46B946B8463D468BE09C48BA
:1005F00000F050FE9B4B03939B4B03939B4A0DF5DE
:10060000815110310A600B60944B0DF5825210320B
:100610001360914B13600DF58250143000F0A6F971
:100620000DF5845D02B0BDE8F08702213046FFF78A
:100630006BFF002386F845316DE0D6F8343103EBCB
:10064000430306EB8303DC22D3F8541103A800F024
:1006500088F9A6F84A0103A800F085F9844BA3FBAA
:1006600000235B09C3EB0312A0EB82000090814AD8
:1006700006210DF58350043000F066FEB6F84A31CD
:10068000A6F84831002748E03046FFF745FF46E02E
:100690000DF58250143000F088F90446A846102564
:1006A0004AE0754B00221A602012A0F1A103042B2E
:1006B00001D84FF0FF30A0F16103192B03D86E4B26
:1006C0001B6803B16038B12800F0938046DC6128D4
:1006D00079D070280CD1B9F1010F00F0A880002466
:1006E0000EE0654B01221A60DEE74FF00109DBE7FF
:1006F0000A2804D1B9F1010F54D0002400E00024ED
:100700000DB1013DEDB296F84631002BBCD096F804
:100710004531002B89D1632F8FD80137FFB25DB9E6
:10072000B8F1000FB4D10DF58250143000F036F955
:1007300004464FF001081025002CE1D04AF2035383
:100740009C42AED04AF202539C42CAD0E3B2012B83
:10075000CBD0032BA8D14FF00309A5E7B52808D0CB
:10076000B62804D1B9F1010F12D00024C8E7002443
:10077000C6E7B9F1010F01D00024C1E796F8463170
:100780000BB10024BCE73046FFF72AFE0024B7E790
:1007900096F846310BB10024B2E73046FFF732FE3F
:1007A0000024ADE796F846310BB10024A8E70DF51B
:1007B0008253103303AA0DF5815110313046FFF7F3
:1007C00035FE00249CE7B9F1010F01D0002497E722
:1007D00096F846310BB1002492E70DF582531033A1
:1007E00003AA0DF5815110313046FFF747FE002472
:1007F00086E7B9F1010F01D0002481E796F8463170
:100800000BB900247CE7002486F846414FF0010A2A
:100810000DF582530A3383F800A0184800F03AFD22
:1008200086F84E4486F845A186F84F4468E796F866
:10083000463173B196F84E343BB9012386F84E34F5
:100840000F4800F027FD00245AE7002386F84E34B5
:10085000F6E7002454E700BFF8310010083200101A
:10086000B0310010403200106C3100102C320010FA
:1008700089888888C031001038010020CC310010F0
:10088000DC3100100023037601224276C3767047E4
:10089000024A0260024A0260704700BF2C32001018
:1008A0006C31001010B50446044B0360044B036028
:1008B000202100F053FA204610BD00BF2C3200105A
:1008C0006C310010074A0260074A02600022426051
:1008D0008260C26002824261027642768276C2768D
:1008E000704700BF6C3100102C32001041608260F4
:1008F000002343768376C37670477047024A0260CE
:10090000024A0260704700BF403200106C31001094
:1009100010B50446044B0360044B036041F224010C
:1009200000F01CFA204610BD403200106C3100105F
:1009300010B50446084B0360084B036041608260B9
:100940004FF0FF3303614FF480520021143000F068
:10095000FDFA204610BD00BF6C310010403200107F
:10096000704700207047002070470000014B036073
:10097000704700BF5432001010B50446FFF7F6FF71
:100980001021204600F0EAF9204610BD024A02601C
:1009900000228260C26070475432001082B0092386
:1009A0008DF80430002002B070474FF0FF307047E0
:1009B000FEE7000008B500F0A5F8124A0AE010684A
:1009C000516850F8230041F823000133916899429F
:1009D000F5D80C320C4B9A4201D20023F6E70B4AB1
:1009E00008E01168002041F8230001335168994262
:1009F000F7D80832064B9A4201D20023F6E700F0FE
:100A00000DFA00BF98320010B0320010B032001062
:100A1000C03200100020704730B42D490B6803F03D
:100A20003F032C4AB2FBF3F3886800FB03F3C8686A
:100A3000C0F30240B3FBF0F3C968C1F30231B3FB6A
:100A4000F1F32549086800F03F00B2FBF0F2886836
:100A500000FB02F2C868C0F30240B2FBF0F2C968C2
:100A6000C1F30231B2FBF1F21C48416BC1F3074103
:100A7000B2FBF1F11A4C2160046C240CB3FBF4F3CB
:100A8000184C2360C46CC4F30144B2FBF4F4164D5B
:100A90002C60846DC4F30144B2FBF4F4134D2C605C
:100AA000446EC4F30344B2FBF4F4114D2C60006FA8
:100AB000C0F30340B2FBF0F20E4802600E4A116030
:100AC0000E4AA2FB03239B0C0D4A136030BC7047F7
:100AD00000000540001BB7000080054000000140F9
:100AE0002C010020300100202801002024010020DA
:100AF00034010020200100203C01002083DE1B4344
:100B0000400100204FF050431B6803B1FEE710B5D1
:100B10004FF0E023D3F8882D42F44012C3F8882D1B
:100B2000D3F8882D42F44002C3F8882D7F4B804AC9
:100B30001A60804A136823F47F6323F00F0343F4A1
:100B40002A63136040F6B833D360136823F47F033D
:100B500023F4704343F47A0343F430431360754B3A
:100B60005B6813F4805FFAD0734A136B23F00303BE
:100B70001363714B9B6B012BFBD16F4AD36B23F03B
:100B80000103D3636C4B5B6C012BFBD14FF48043AF
:100B90006A4A136002F580521360644B9B6813F439
:100BA000804FFAD0664A136823F03F0343F00203F4
:100BB0001360C8239360634B20225A6001225A605D
:100BC0005F4B1B68002BFBDA5D4AD36823F4E023FC
:100BD00043F44033D360D36823F4E04343F4005339
:100BE000D360584B08225A604FF40043534A1360B5
:100BF00002F5805213604D4B9B6813F4004FFAD0FE
:100C0000514A136823F03F0343F001031360642348
:100C100093604E4B20225A6001225A604A4B1B6857
:100C2000002BFBDA484AD36823F4E02343F4A023E3
:100C3000D360D36823F4E04343F4A043D360434B31
:100C400008225A60A3F596231A6B22F060021A63F9
:100C50001A6B22F0030242F001021A635A6B22F46B
:100C60007F0242F480325A63DA6B22F0E002DA63E8
:100C7000DA6B42F00102DA631A6C92B242F480320B
:100C80001A641A6C120C12041A64314C4FF400628C
:100C9000A264996C21F0E00141F040019964D96CA3
:100CA00021F4403141F48031D9642A48826462657C
:100CB000596D21F0E00141F040015965996D21F431
:100CC000403141F48031996542652266196E21F008
:100CD000E0011966596E21F4702141F480315966A2
:100CE0000266E266D96E21F0E001D966196F21F43F
:100CF000702141F480311967C266174A012353609D
:100D0000136102F500521360D360A2F567224FF41D
:100D1000000111604FF08071116002F50D229363A4
:100D200002F500429363FFF777FE10BD000002401A
:100D30003F39780400800440000001400020024058
:100D400000000540003005400080054000B005402F
:100D500000300140002001400080104000F000B849
:100D600000F0ECB8F8B500BFF8BC08BC9E46704770
:100D7000F8B500BFF8BC08BC9E467047F50D0010E2
:100D8000190A0010CD0D00100348044B834202D015
:100D9000034B03B118477047640000206400002033
:100DA00000000000064B0749C91A891048BF0131ED
:100DB000491003D0044B0BB101481847704700BFDE
:100DC00064000020640000200000000010B5064C04
:100DD000237843B9FFF7D8FF044B13B10448AFF3AE
:100DE00000800123237010BD64000020000000007B
:100DF0009832001008B5044B1BB104490448AFF306
:100E00000080BDE80840CDE7000000006800002039
:100E100098320010A3F5803A704700BF154B002BA5
:100E200008BF114B9D46FFF7F5FF00218B460F468B
:100E30001148124A121A00F089F80C4B002B00D00E
:100E400098470B4B002B00D098470020002104004E
:100E50000D000B4800F016F800F044F820002900BF
:100E6000FFF7B0F900F014F80000080000000000DF
:100E70000000000000000820640000204401002061
:100E8000B90E0010002301461A46184600F04CBC6B
:100E900008B5074B044613B1002100F09BFC054B3D
:100EA0001868836A03B19847204602F023F900BF0F
:100EB000D51700100031001038B5084B084D5B1BEA
:100EC0009C1007D0043B1D44013C55F80439984759
:100ED000002CF9D1BDE83840FFF74ABF880D00105B
:100EE000840D001070B50D4E0D4D761BB61006D05A
:100EF0000024013455F8043B9847A642F9D1094E25
:100F0000FFF730FF084D761BB61006D000240134E1
:100F100055F8043B9847A642F9D170BD7C0D0010EE
:100F20007C0D0010840D00107C0D0010024B01465A
:100F3000186800F0B3B800BF00000020024B014663
:100F4000186800F055B800BF0000002070B5860793
:100F500048D0541E002A3FD0CAB2034601E0013CEB
:100F60003AD303F8012B9D07F9D1032C2DD9CDB22B
:100F70000F2C45EA052545EA054536D9A4F1100CA4
:100F800003F1200E03F110022CF00F064FEA1C1C97
:100F9000B64442E9045542E9025510327245F8D18F
:100FA0000CF1010214F00C0F04F00F0C03EB021211
:100FB00013D0ACF1040323F003030433134442F8C9
:100FC000045B9342FBD10CF003042CB1CAB21C4465
:100FD00003F8012B9C42FBD170BD64461346002CE4
:100FE000F4D1F9E703461446BFE71A46A446E0E702
:100FF000002941D051F8043C30B5002B83B0A1F159
:1010000004040190B8BFE41800F038FF224A0198A8
:101010001368EBB1A34216D81A465B680BB1A34222
:10102000FAD9116802EB010CA44526D031D8216809
:1010300004EB010C634512D06360546003B0BDE85B
:10104000304000F01DBF216804EB010C63450DD05A
:101050006360146003B0BDE8304000F011BF1D684C
:101060005B682944C4E900135460F3E71D685B68BA
:101070002944C4E90013ECE770472468214454185C
:101080001160A342E6D1D3E900432144C2E9001331
:10109000E0E70C230360DDE780000020F8B5CD1CFD
:1010A000064625F0030508350C2D38BF0C25002D0C
:1010B00015DBA94213D8254F00F0E0FE3A6892B143
:1010C000144603E0636822461C4663B123685B1B39
:1010D000F8D40B2B28D923601C44256017E00C237F
:1010E00000203360F8BD796859B32946304600F0D6
:1010F000D9F8431C1ED0C41C24F00304A04205D020
:10110000211A304600F0CEF8013013D02560304669
:1011100000F0B6FE04F10B00231D20F00700C21AF8
:10112000E0D01B1AA350F8BD636894420CBF3B602B
:101130005360ECE70C233046336000F0A1FE002042
:10114000F8BD304600F0AEF87860CEE780000020B1
:101150000EB410B5044683B008B183695BB106AB29
:10116000059AA1682046019301F0CCF803B0BDE8D0
:10117000104003B0704700F08FFDF0E70FB40B4B49
:1011800010B51C6882B00CB1A3695BB105AB049AC1
:10119000A1682046019301F0B5F802B0BDE8104007
:1011A00004B07047204600F077FDEFE70000002014
:1011B0002DE9F04107460E46002836D08369002B02
:1011C00031D08468304B9C4239D0304B9C4241D066
:1011D0002F4B9C4208BFFC68A3891B0733D52369AA
:1011E000002B30D03578002D36D0B04608E00A2DDF
:1011F00011D023685A1C22601D7018F8015F5DB37E
:10120000A368013B002BA360F3DAA66929462246B6
:101210003846B342EBDA00F0A5F90130EDD14FF0DA
:10122000FF30BDE8F08100F037FDBB69BC68002BE2
:10123000C8D1384600F030FD134B9C42C5D17C68C4
:10124000A3891B07CBD42146384600F0EBF90028D0
:10125000C8D0E4E7BC68BFE7A368013B002BA360EC
:1012600009DA22460A21384600F07CF90130D6D04E
:101270000A20BDE8F08123680A22591C104621602B
:101280001A70BDE8F08100BF443100102431001015
:1012900004310010024B01461868FFF789BF00BFF8
:1012A0000000002038B50022064D044608462A609A
:1012B00001F010FF431C00D038BD2B68002BFBD081
:1012C000236038BD18010020002A08B410B5044678
:1012D0009DB033DB4FF4027302910691ADF81430E8
:1012E00020AB17D0013A4FF6FF7101930492079299
:1012F000ADF8161002A91F9A00F0A4FE421C01DAF4
:101300008B232360029B00221A701DB0BDE81040A1
:1013100001B070474FF6FF7104920792ADF81610B6
:1013200002A91F9A019300F08DFE431C01DA8B2362
:1013300023601DB0BDE8104001B070478B234FF013
:10134000FF302360F5E700BF0CB400291F4B10B538
:101350001C689CB035DB4FF4027302900690ADF828
:1013600014301FAB18D001394FF6FF701E9A04914C
:10137000079102A9ADF816002046019300F062FE25
:10138000421C01DA8B232360029B00221A701CB0DE
:10139000BDE8104002B070474FF6FF70049107910E
:1013A00002A9ADF8160020461E9A019300F04AFEED
:1013B000431C01DA8B2323601CB0BDE8104002B04F
:1013C00070478B234FF0FF302360F5E700000020CB
:1013D0000CB430B59DB06FF000440A4D20AB0291C3
:1013E000069102A953F8042B0595019307940494E0
:1013F00000F028FE029B00221A701DB0BDE83040AC
:1014000002B070470802FFFF0EB430B59CB0014631
:101410000C4D6FF000441FAB029106910A4953F83E
:10142000042B059102A9286801930794049400F005
:1014300009FE029B00221A701CB0BDE8304003B0C8
:10144000704700BF000000200802FFFF80EA010291
:10145000844612F0030F4FD111F0030F32D14DF833
:10146000044D11F0040F51F8043B0BD0A3F10132ED
:101470009A4312F0803F04BF4CF8043B51F8043B00
:1014800016D100BF51F8044BA3F101329A4312F078
:10149000803FA4F101320BD14CF8043BA24312F07F
:1014A000803F04BF51F8043B4CF8044BEAD023467C
:1014B0000CF8013B13F0FF0F4FEA3323F8D15DF82E
:1014C000044B704711F0010F06D011F8012B0CF8F6
:1014D000012B002A08BF704711F0020FBFD031F86E
:1014E000022B12F0FF0F16BF2CF8022B8CF80020F5
:1014F00012F47F4FB3D1704711F8012B0CF8012B78
:10150000002AF9D1704700BF20F0030110F003005A
:10151000C0F1000051F8043B00F1040C4FEACC0C80
:101520006FF000021CBF22FA0CF213434FF0010CC3
:101530004CEA0C2C4CEA0C4CA3EB0C0222EA030202
:1015400012EACC1204BF51F8043B0430F4D0C2F1CB
:10155000000102EA0102B2FA82F2C2F11F0200EBBC
:10156000D2007047F8B50D460646144608B18369A7
:1015700043B3254B9C422AD0244B9C4229D0244B78
:101580009C4208BFF468A269A389A2601A0722D509
:10159000236903B32268EDB26169D31A2F469942D9
:1015A00029DD0133A1680139A160511C216015704A
:1015B00062699A4216D00A2D02D1A389DB0711D4A1
:1015C0003846F8BD00F068FB0F4B9C42D4D17468DC
:1015D000D9E7B468D7E72146304600F023F838B998
:1015E0002369D7E72146304600F0ECF90028E7D020
:1015F0004FF0FF37E4E72146304600F0E3F90028DA
:10160000F6D122680123CDE74431001024310010C7
:1016100004310010024B0A4601461868FFF7A2BFCA
:10162000000000203C4B70B51D6806460C460DB10D
:10163000AB69E3B1394B9C421FD0394B9C4247D038
:10164000384B9C4208BFEC68B4F90C3018079AB2CA
:1016500019D5216911B312F001002FD00020A0602C
:1016600060694042A06100292ED0002070BD28464C
:1016700000F012FB294B9C42DFD16C68B4F90C30AE
:1016800018079AB2E5D4D10638D5520722D4216979
:1016900043F008039AB2A3810029DCD102F4207040
:1016A000B0F5007FD7D02146304600F057FBB4F9A3
:1016B0000C3021699AB212F00100CFD1950758BFC2
:1016C0006069A0600029D0D112061FD4084670BD01
:1016D000AC68B9E7616B51B104F14402914204D0A6
:1016E0003046FFF785FCB4F90C300022626300221B
:1016F000216923F02403C4E90012C9E7092243F059
:1017000040034FF0FF303260A38170BD43F04003CF
:101710004FF0FF30A38170BD000000204431001065
:101720002431001004310010F0B5264C85B0064677
:10173000256805B36C681F2C41DCA6B1D5F888007C
:1017400048B3D0F800714FF0010C40F82420022E6D
:1017500000EB84020CFA04FC4CEA0707C0F80071A5
:10176000C2F8803010D0631C002002346B6045F852
:10177000241005B0F0BD144D144825600028D9D0C0
:101780000068C5F88800D5E7D0F8043143EA0C03B7
:10179000C0F80431E7E70E480191CDE9022370B1AA
:1017A0004FF48470FFF7C2FB48B100276C680199C1
:1017B000C0E94077DDE90223C5F88800C3E74FF0B0
:1017C000FF30D6E714010020880000200000000050
:1017D0002D0F00102DE9F84FDFF8B8A0DAF80070EF
:1017E0002DED028BD7B108EE100A89467D68D7F837
:1017F00088806C1E12D407EB850608EB850504363D
:10180000B9F1000F0ED0B8F1000F02D0EB6F4B45CD
:1018100008D0013C043D043E631CF1D1BDEC028BB9
:10182000BDE8F88F7B683268013BA3422CD00023CF
:101830003360002AEDD0D7F804B0B8F1000F1AD009
:101840000123D8F8000103FA04F1014213D0D8F8BB
:10185000040101421AD155F8041C18EE100A9047F1
:101860007A685A450BD1DAF80030BB42D1D01F4616
:10187000002FBBD1D2E790477A685A45F3D0DAF807
:101880000070002FB2D1C9E77C60D2E755F8040C94
:101890009047E5E7140100208B891A072DE9F041F4
:1018A0000C4680462DD44A68002A47DDE56A002DA3
:1018B00041D00022D8F80060C8F8002013F480520C
:1018C00040D10123216A4046A847431C6CD0A3891C
:1018D000E56A5F0705D56368C01A636B0BB1236CBB
:1018E000C01A02460023216A4046A847451C33D14E
:1018F000D8F800201D2A48D9A38943F04003A381CA
:101900001AE00E69BEB10D680E609907A5EB0605D9
:101910000CBF63690023A3600BE02B463246216AAB
:101920004046A76AB847B0F1000CA5EB0C05664429
:101930000ADD002DF1DC0020BDE8F0810A6C002AF0
:10194000B4DCF8E7606DC4E7A3894FF0FF3043F0E3
:101950004003A381BDE8F081002363602369236015
:10196000A389DA0400D56065616BC8F800600029BE
:10197000E1D004F14403994202D04046FFF738FB1E
:10198000002318466363BDE8F0810D4BD340DB4371
:1019900013F00103B0D1636023692360A389DB04E2
:1019A000E2D5002AE0D1DEE7D8F80030002B8ED057
:1019B0001D2B01D0162B9FD10020C8F80060BBE77B
:1019C0000100402038B50B69BBB10D46044608B193
:1019D0008369B3B10D4B9D4211D00D4B9D4213D085
:1019E0000C4B9D4208BFE568B5F90C302BB1294678
:1019F0002046BDE83840FFF74FBF002038BD65687E
:101A0000F2E700F049F9E5E7A568EDE74431001099
:101A1000243100100431001038B540B30369044686
:101A2000E3B1174B1D680DB1AB69CBB1154B9C42AF
:101A30000FD0154B9C4221D0144B9C4208BFEC6840
:101A4000B4F90C3053B121462846BDE83840FFF7C1
:101A500023BF6C68B4F90C30002BF4D1002038BDE2
:101A6000284600F019F9074B9C42E2D1F1E7084BF8
:101A700008491868BDE8384000F04EB9AC68DFE7A7
:101A80000000002044310010243100100431001007
:101A900000310010C519001000207047014900F006
:101AA0003BB900BFC51900100020704770B568220F
:101AB0004E1E0D4602FB06F606F17401FFF7EEFA24
:101AC000044640B100210C3006F16802A060C4E970
:101AD0000015FFF73BFA204670BD00BF274B2DE9EC
:101AE000F0411E680746B36953B348364FF0040807
:101AF000D6E90134013B04D51EE05A1C04F1680408
:101B00001AD0B4F90C50013B002DF6D11C4B082221
:101B1000294604F15C006566A561C4E90055C4E985
:101B20000253C4E90455FFF711FAC4E90D55C4E99D
:101B300012552046BDE8F08135682DB12E46D7E715
:101B4000304600F01FF8D0E74FF4D6713846FFF763
:101B5000A5FA044668B105600C302946254640F8D0
:101B6000088C4FF4D072A060FFF7F0F934602E4675
:101B7000BEE70C2330603B60DBE700BF00310010A4
:101B80000100FFFF374A384912682DE9F84F9042AB
:101B90004FF00003054681620365C0E912335ED051
:101BA00028460024FFF79AFF03462846DFF8C4B012
:101BB0006B60FFF793FF03462846DFF8BCA0AB60DD
:101BC000FFF78CFF6F680423E8600822214607F1C5
:101BD0005C007C66BC61DFF8A490DFF8A480C7E9F4
:101BE0000243C7E90044C7E90444FFF7AFF9AE6810
:101BF0001E4B0822C7F828A02146C7F82C9006F1F2
:101C00005C00C7F83080C7E9087BF3607466B46095
:101C1000B461C6E90044C6E90444FFF797F9144BE0
:101C2000C6F8308021460822C6E9086BC6E90AA931
:101C3000EE68F36006F15C007466B460B461C6E9F6
:101C40000044C6E90444FFF781F90123C6F828A03F
:101C5000C6E9086BC6E90B98AB61BDE8F88F0123B4
:101C600083619DE7003100109D1A001009000100FA
:101C7000120002008D290010B5290010F52900106E
:101C8000192A0010024B0349186800F045B800BF3C
:101C900000310010C5190010836903B972E770475D
:101CA000704700BF704700BF704700BF704700BF5C
:101CB000024B0349186800F00FB800BF0000002075
:101CC000991A0010024B0349186800F005B800BFCC
:101CD00000000020A91A00102DE9F04100268846D6
:101CE00000F14807D7E90154013D0ED4A389013D15
:101CF000012B06D9B4F90E302046013301D0C0477C
:101D000006436B1C04F16804F0D13F68002FE9D151
:101D10003046BDE8F08100BF2DE9F843002681463A
:101D2000884600F14807D7E90154013D0FD4A38943
:101D3000013D012B07D9B4F90E3021464846013345
:101D400001D0C04706436B1C04F16804EFD13F6823
:101D5000002FE8D13046BDE8F88300BF8B89F0B58D
:101D60000C46990797B007D504F147030122236079
:101D7000C4E9043217B0F0BDB4F90E1005460029CD
:101D80002DDB6A4600F074FE002827DB019E4FF42D
:101D90008067284606F470463946A6F50056B6FA1E
:101DA00086F67609FFF77AF938B3A3891B4A43F020
:101DB0008003AA62A3812060C4E90407002ED9D061
:101DC000B4F90E10284600F0E3FF0028D2D0A38912
:101DD00023F0030343F00103A381CBE7A38913F0AE
:101DE000800F28464FF0000614BF40274FF480674D
:101DF0003946FFF753F90028D7D1B4F90C309A05CA
:101E0000B8D423F0030304F14702012143F0020395
:101E10002260C4E90421A381ACE700BF9D1A001031
:101E200070B50C46B1F90E1096B0164600291D4645
:101E300013DB6A4600F01CFE00280EDB01994FF40C
:101E40008063002001F47041A1F50051B1FA81F1E5
:101E500049092960336016B070BDB4F90C30002216
:101E60001B062A6004D540230020336016B070BDE5
:101E70004FF480630020336016B070BD704700BF20
:101E8000704700BF2DE9F0478E680C461D4690460E
:101E90009E4237D88B8913F4906F0ED1086835466F
:101EA0002A46414601F052F8A26823680020921B9E
:101EB0002B44A2602360BDE8F087676981462268F1
:101EC000681C17EB4707096948BF0137A2EB010AF5
:101ED0007F105044B8423A4601D9074602465B0596
:101EE00013D511464846FFF7D9F8064600B35246C7
:101EF000216900F0B5FFA38923F4906343F08003C8
:101F0000A38107E01E460868CAE7484601F09AF830
:101F1000064648B106EB0A00A7EB0A0326612E46E7
:101F20006761A3602060BBE721694846FFF760F85E
:101F30000C234FF0FF30C9F80030A38943F0400371
:101F4000A381B8E793682DE9F04F914683B0002B49
:101F500071D0176880460C4608688D68083747E0DE
:101F6000B4F80CC01CF4906F30D0D4E9041313EB18
:101F70004303A0EB010548BF0133AA194FEA630AE6
:101F8000134601335246534501D99A461A461CF46A
:101F9000806F37D011464046FFF780F800283BD0CD
:101FA0002A462169019000F05BFFA289019B22F47F
:101FB000906242F08002A2815819AAEB0505C4F88C
:101FC00014A0B246A56035462361206059465246AA
:101FD00000F0BCFFA068D9F808102368451B8E1BD1
:101FE00003EB0A00A5602060C9F808601EB308373B
:101FF00057E902B6002EFAD0B542AA46B0D9354606
:10200000B246E3E7404601F01DF803460028D3D16D
:1020100021694046FEF7ECFF0C2300224FF0FF3011
:10202000C8F80030A38943F04003A381C9E9012225
:1020300003B0BDE8F08F00231846C9F8043003B0A0
:10204000BDE8F08F2DE9F04F92468A899FB00F4688
:10205000150680461C4603D50A69002A00F0F38065
:1020600020230022059401258DF8313030237E4C49
:102070000B928DF832309AF80020D14652B1252AC1
:1020800008D0CB4619F8012F0AB1252AF9D1B9EBAE
:102090000A0367D1002A75D000234FF0FF3209F1FF
:1020A0000109069309938DF85B301C93CDE9072352
:1020B00005E0001B069A05FA00F313430693CB468E
:1020C0000522204619F8011B00F08AFE0028F0D1F5
:1020D000069BD80602D520228DF85B20190702D571
:1020E0002B228DF85B209BF800102A2955D1059AE8
:1020F000111D1268002A05917EDB09920BF1010A7D
:102100009BF801102E295BD0DFF86C910322484622
:1021100000F066FE50B1A0EB09004FF04009069BAD
:102120000AF1010A09FA00F0034306931AF8011BA9
:1021300006224E488DF8301000F052FE002861D083
:102140004B4B002B51D005AE4A4B3A4606A90096A0
:102150004046AFF300800646721C13D00B9B3344FD
:102160000B9388E75246394640460393FFF78AFEB1
:10217000013007D00B9A039B13440B939BF801206B
:10218000002A89D1BB895B0654BF0B9B4FF0FF33FC
:10219000039303981FB0BDE8F08FA1F13002092A24
:1021A0004FD8099B03EB83031BF8011F02EB43038A
:1021B000A1F13002092AF5D92E29DA460993A3D1D3
:1021C0009AF801102A2927D1059B0AF10202191D4C
:1021D0001B68002B07930591B8BF4FF0FF339AF8A7
:1021E00002109246B8BF07938EE7059B073323F092
:1021F000070308330593B1E7524243F00203099203
:1022000006937BE705A81B4B3A4606A9009040467B
:1022100000F05CFA06469FE7A1F1300200230AF1C4
:10222000010A092A07933FF66FAF03EB83031AF8FD
:10223000011F02EB4303A1F13002092AF5D90793EC
:1022400062E7DA465EE74021FEF728FF3860386132
:1022500010B140227A6103E70C234FF0FF32C8F837
:102260000030039295E700BF5C3200106832001026
:1022700000000000851E0010643200109368013BCE
:10228000002B936011DA10B49469A34209DB0A2988
:1022900007D01368581C1060084619705DF8044B8D
:1022A00070475DF8044BFFF75DB91368581C106068
:1022B00008461970704700BF9BB1F8B51344064635
:1022C0000F46541E5D1E01E0AC4208D014F8011FF9
:1022D0003A463046FFF7D2FF431CF5D1F8BD002047
:1022E000F8BD0020704700BF936810B5144613B9BD
:1022F0001846536010BD00F0D1FB0023C4E9013340
:1023000010BD00BF2DE9F04F88469FB015461C4612
:10231000814618B18369002B00F0B480934B984537
:1023200000F0B680924B984500F0C380914B9845E1
:1023300008BFD9F80C80B8F80C30180740F1AF800E
:10234000D8F81030002B00F0AA80002329788A4E9C
:1023500001270B93202305948DF8313030238DF81D
:102360003230002973D0252971D02C46A34614F8A9
:10237000012F0AB1252AF9D1631B039373D1002AD7
:1023800069D000234FF0FF320134069309938DF892
:102390005B301C93CDE9072304E0801B07FA00F0B3
:1023A00018430690A2460522304614F8011B00F09F
:1023B00017FD069B0028F0D1D90602D520228DF802
:1023C0005B201A0702D52B228DF85B209AF80010AB
:1023D0002A2971D1059A111D1268002A0591C0F2AF
:1023E0009E8009920AF101059AF801102E2976D0F3
:1023F000624C0322204600F0F3FC38B1001B40245D
:10240000069B013504FA00F00343069315F8011BFF
:1024100006225B488DF8301000F0E2FC002800F046
:102420008480584B002B6CD005AC574B424606A914
:1024300048460094AFF300800290029B01330AD01B
:102440000B9B029A297813440B9300298BD10A46DF
:102450002C46002A95D1B8F80C305B0626D40B9890
:102460001FB0BDE8F08F05F1FF3A9A4403E0AA459A
:102470004ED015F8011F42464846FFF7FFFE0130D7
:10248000F5D1E8E7FFF708FC384B98457FF44AAFF1
:10249000D9F80480B8F80C3018073FF551AF414621
:1024A0004846FFF7BFF800283FF44FAF4FF0FF302A
:1024B000D6E7D9F808803EE7A1F13002092A52D8C0
:1024C000099B03EB83031AF8011F02EB4303A1F1FD
:1024D0003002092AF5D92E295546099388D1697801
:1024E0002A292CD1059BAA1C191D1B68002B0793B8
:1024F0000591B8BF4FF0FF33A9781546B8BF0793D1
:1025000076E7059B073323F007030833059397E726
:102510000B9A039B1A440B929BF801202FE752421F
:1025200043F00203099206935CE705A8164B424666
:1025300006A90090484600F0C9F802907DE7A1F195
:10254000300200230135092A07933FF651AF03EB10
:10255000830315F8011F02EB4303A1F13002092A9E
:10256000F5D9079344E7554640E700BF44310010D2
:1025700024310010043100105C320010643200106D
:102580006832001000000000B922001010B4044CA2
:1025900013460A46014620685DF8044BFFF7B2BEB9
:1025A000000000202DE9F84F92461F460A690C46AC
:1025B0008B680646DDF828909A42B8BF1A46CAF8DA
:1025C000002091F8433013B10132CAF8002022688C
:1025D00091066BD5DAF800300233CAF80030226871
:1025E00012F0060F11461CD1E168CB1A002B6ADDF0
:1025F00004F1190B4FF0000805E0E568DAF8003047
:10260000ED1A45450CDD01235A4639463046C84788
:10261000013008F10108F0D14FF0FF30BDE8F88F2C
:10262000216894F84330003B18BF01238A060AD57D
:10263000E1185A1C30200233224481F8430094F8F8
:10264000451082F8431004F1430239463046C8472A
:102650000130E1D02368DAF8002003F00603E168D6
:10266000042BA1EB0208A368226902D1B8F1000F84
:1026700014DA934217DD4FF000089B1A98441A347D
:10268000002501E045450EDA012322463946304651
:10269000C847013005F10105F4D1BDE79342ECDCF8
:1026A000B8F1000FEBD10020BDE8F88F12F0060F53
:1026B00003D0003B18BF0123C5E7DAF80030E1681A
:1026C000CB1A002B94DC1146ABE700BF2DE9F04795
:1026D000904684B00A7E07460C4699460C9D01F14F
:1026E0004300002A33D0A2F15803D9B2202967D879
:1026F000202B65D8DFE813F0F70064006400640065
:102700006400640064006400640064006400BC0051
:102710006E0064006400640064006E006400640085
:102720006400640021009000F20064006400C700AF
:102730006400900064006400D80023681A0640F129
:10274000F9802B686269191D29601B681A600023D3
:1027500082462361434603AA21463846CDF80090BD
:10276000FFF720FF013020D052462369414638460A
:10277000C847013019D02368E0689B07039E19D52C
:10278000831B002B16DD04F1190A002504E0E06824
:10279000039E831BAB420DDD012352464146384662
:1027A000C847013005F10105F1D14FF0FF3004B009
:1027B000BDE8F087B042B8BF304604B0BDE8F0874E
:1027C000012304F1420A84F842202361002384F8A3
:1027D0004330BFE723681A0640F1C2802A68111D02
:1027E000126829601546002AC0F2848062680A26B1
:1027F000DFF890C1002AA26023DB236823F00403E2
:102800002360002D40F08480EAB98246082E22D051
:10281000A0EB0A0020619DE72368190640F196802D
:102820002B68191D29601D686F2ADFF858C10CBF7D
:1028300008260A2662680023002A84F84330A26032
:10284000DBDA002D64D19CF80030082E04F1420A36
:1028500084F84230DCD12368D907D9D5626823696E
:102860009A42D5DC30230AF1FF3A8AF80030CFE7EC
:102870002B68012204F1420A196804332B6084F8A2
:1028800042102261A2E72B6800216268181D2860AF
:10289000D3F800A0504600F0A3FA00286FD0A0EBB8
:1028A0000A006060206191E723687822DFF8D8C0D1
:1028B00084F845202A68111D29601D0636D4590662
:1028C00034D51588DE0702D543F0200323607DBB95
:1028D0002368102623F020032360ABE7236843F02E
:1028E00020032360E1E75823DFF898C084F84530DF
:1028F0002368DFE72D226D4284F843206268002AB6
:10290000A26002DB23F004032360DFF878C00A260C
:1029100082462A46B5FBF6F306FB1351B2421D462A
:102920001CF801300AF8013DF3D26FE71568C9E7DA
:1029300010267FE713F0400F2B68626903F1040152
:1029400029601B6814BF1A801A6000E713F0400F5B
:102950002B6803F10401296014BF1D881D6863E71B
:102960005E0606D52A68111D2960B2F900502A4674
:1029700039E729680A6804312960154633E7606839
:1029800090E700BF703200108432001010B50C4682
:10299000B1F90E1000F07EFB002803DB636D0344E9
:1029A000636510BDA38923F48053A38110BD00BFCC
:1029B000002070472DE9F0410C46B1F90C101F467C
:1029C0000546CB0516460BD421F480513B463246D2
:1029D0002846A181B4F90E10BDE8F04100F020B8FE
:1029E000B4F90E100223002200F0E4F9B4F90C103F
:1029F000EAE700BF10B50C46B1F90E1000F0DAF9A5
:102A0000421CA38904D043F480536065A38110BDA8
:102A100023F48053A38110BDB1F90E1000F016B855
:102A200038B50C4684461146074D1A460023204609
:102A300064462B60FDF7EEFF431C00D038BD2B68C9
:102A4000002BFBD0236038BD1801002038B50022D0
:102A5000064D044608462A60FDF7DCFF431C00D003
:102A600038BD2B68002BFBD0236038BD1801002037
:102A700070B50C460346084D0026204611461C46FC
:102A80002E60FDF7C7FF431C00D070BD2B68002BE4
:102A9000FBD0236070BD00BF180100209368002B9D
:102AA00000F08580B1F90C302DE9F04F0C46190784
:102AB000804683B0174698B225D523691BB310F022
:102AC00002033D682DD04FF0000ADFF8C0B2B946CE
:102AD00056465E4533465246404628BF5B46002E6A
:102AE00052D0216AA76AB847002856DDD9F80830C5
:102AF0008244361A181AC9F808000028E9D10020C3
:102B000003B0BDE8F08F21464046FEF78BFD00285C
:102B100040F03981B4F90C303D6898B210F00203EE
:102B2000D1D110F0010944D14E46009746B3820539
:102B3000D4F808B040F18680B3455A4600F2B5801B
:102B400010F4906F40F0C28020684946019200F076
:102B5000FDF9A368019AB246A3EB0B012368002696
:102B60001344A1602360009BD1449868A0EB0A0045
:102B700098600028C3D0B4F90C0080B2002ED6D1E2
:102B8000D5E900960835D1E7D5E900A60835A0E7D4
:102B900021464046FEF716FF88B3B4F90C3043F0E7
:102BA00040034FF0FF30A38103B0BDE8F08F002059
:102BB00070471E46AA46994618461D4600975EB3C2
:102BC000002833D04A46A168B2426369206828BF12
:102BD000324603EB010B2169884202D95A4500F3C2
:102BE000A880934265DC2A46216A4046A76AB84716
:102BF000B0F1000BD1DDB9EB0B09C9D00120009B6E
:102C00005D44A6EB0B069A68A2EB0B029A60002AC1
:102C10003FF475AF002ED3D10AF1080353F8046CCA
:102C20009A4653F8085C0833002EF7D032460A2142
:102C3000284600F0D5F8002800F09C800130A0EB79
:102C40000509BFE720682369984216D86369B34233
:102C500013D86FF00042216A4046A76AB24228BFEB
:102C6000324692FBF3F202FB03F34A46B847B0F157
:102C7000000A92DDA6EB0A0675E7B345DA46494637
:102C800028BFB246524600F061F9A3682268A3EB60
:102C90000A035244A3602260002BEBD12146404638
:102CA000FEF790FE0028E5D077E7B346206832466D
:102CB0004BE72946019200F049F9019AA36893462F
:102CC0009B1AA36023681344236094E72368216957
:102CD000A3EB010B636913EB430348BF01334FEAD6
:102CE000630A0BF1010333445246534501D99A4616
:102CF0001A4643052CD511464046FEF7CFF9002869
:102D00003BD05A462169019000F0AAF8A289019BA4
:102D100022F4906242F08002A28103EB0B00236157
:102D2000AAEB0B033246B346C4F814A0A36020609C
:102D30000BE729465A4600F009F923682146404628
:102D40005B442360FEF73EFE00283FF454AF24E7C7
:102D5000404600F077F903460028DED1216940465D
:102D6000FEF746F9B4F90C300C2223F08003C8F8C2
:102D7000002014E7721C914625E70C22B4F90C30B0
:102D8000C8F800200BE74FF0FF30B9E600FCFF7FEA
:102D900038B50022064D044608462A60FDF73AFE83
:102DA000431C00D038BD2B68002BFBD0236038BDFE
:102DB0001801002038B50C4684461146074D1A46C6
:102DC0000023204664462B60FDF724FE431C00D000
:102DD00038BD2B68002BFBD0236038BD18010020C4
:102DE00010B55FFA81FE810713D00346511E22B948
:102DF0000BE09A070ED0013907D39C4613F8012B3C
:102E000072451846F5D1604610BD4FF0000C604683
:102E100010BD114603290DD80029F6D002464318EB
:102E200001E09A42F1D0944612F8011B7145F8D1A5
:102E3000604610BD4EEA0E24024644EA04441046A1
:102E4000043203686340A3F1013C2CEA030313F04E
:102E5000803FE3D1043910460329F0D8DCE700BFF6
:102E6000844641EA000313F0030349D1403A23D3D7
:102E70000B6803604B6843608B688360CB68C360FA
:102E80000B6903614B6943618B698361CB69C361E2
:102E90000B6A03624B6A43628B6A8362CB6AC362CA
:102EA0000B6B03634B6B43638B6B8363CB6BC363B2
:102EB00040304031403ADBD230320BD30B680360F4
:102EC0004B6843608B688360CB68C36010301031FF
:102ED000103AF3D20C3205D351F8043B40F8043BCE
:102EE000043AF9D2043208D0D2071CBF11F8013BD2
:102EF00000F8013B01D30B8803806046704700BF98
:102F0000082A13D38B07B1D010F00303AED0C3F15E
:102F10000403D21ADB071CBF11F8013B00F8013B88
:102F2000A4D331F8023B20F8023B9FE7043AD9D3FF
:102F3000013A11F8013B00F8013BF9D20B7803701C
:102F40004B7843708B7883706046704788420DD908
:102F50008B1883420AD900EB020CBAB1624613F80F
:102F600001CD994202F801CDF9D170470F2A0ED850
:102F7000034602F1FF3C4AB10CF1010C013B8C44C9
:102F800011F8012B614503F8012FF9D1704740EA90
:102F900001039B0750D1A2F1100301F1200C70B581
:102FA00023F00F0501F1100E00F110041B09AC44D1
:102FB0005EF8105C0EF1100E103444F8205C5EF8E0
:102FC0001C5C44F81C5C5EF8185C44F8185C5EF805
:102FD000145CE64544F8145CEAD1013312F00C0F9E
:102FE00002F00F0C01EB031100EB031328D0ACF13E
:102FF000040C1C1F8E462CF003064FEA9C0C1E444A
:103000005EF8045B44F8045FB442F9D10CF1010CA2
:1030100002F0030203EB8C0301EB8C0102F1FF3C95
:103020004AB10CF1010C013B8C4411F8012B6145B4
:1030300003F8012FF9D170BD02F1FF3C03469BE775
:103040006246EBE7F8B51446F9B1CAB106460D463B
:1030500000F036F8A04202D32F463846F8BD21468C
:103060003046FEF71BF807460028F6D022462946D0
:10307000FFF7F6FE30462946FDF7BAFF3846F8BDA1
:103080001746FDF7B5FF3846F8BD1146BDE8F840D4
:10309000FEF704B838B50C4684461146074D1A466B
:1030A0000023204664462B60FDF7B4FC431C00D08F
:1030B00038BD2B68002BFBD0236038BD18010020E1
:1030C00051F8040C0028A0F10400BCBF0B58C01834
:1030D000704700BF054A0346106810B103441360EF
:1030E0007047034803441360704700BF1C01002071
:0830F00044010020FEE700BFCF
:0830F8001CDDFF7F0100000058
:10310000040000200000000000000000000000009B
:1031100000000000000000000000000000000000AF
:10312000000000000000000000000000000000009F
:10313000000000000000000000000000000000008F
:10314000000000000000000000000000000000007F
:10315000000000000000000000000000000000006F
:103160000000000000000000000000009D010010B1
:10317000AD010010A90100102564202564202564FC
:103180000A000000737461727420706C61793A20D7
:1031900025730A00737461727420706C6179206108
:1031A0006C6C3A2025640A0025642F256400000019
:1031B0006E756D5F66696C6573203C3D3000000084
:1031C000253032643A2530326400000073746F7029
:1031D00020706C6179696E67000000007061757322
:1031E0006520706C6179696E67206D703300000036
:1031F0000000000000000000ED010010410200107E
:1032000000000000000000000D020010210200106C
:103210000000000000000000F90100105902001039
:10322000950500100000000000000000910800104B
:10323000A508001085080010000000000000000034
:10324000FD08001011090010FB080010000000002C
:10325000000000006D09001079090010232D302BAB
:1032600020000000686C4C0065666745464700001A
:1032700030313233343536373839414243444546AC
:10328000000000003031323334353637383961626E
:083290006364656600000000A4
:10329800C032001000000020190000002433001084
:0832A80000000011000000000D
:1032B0006400002038000000000000110000000041
:1032C00004000020000000004431001024310010F0
:1032D00004310010000000000000000000000000A9
:1032E00000000000000000000000000000000000DE
:1032F00000000000000000000000000000000000CE
:1033000000000000000000000000000000000000BD
:1033100000000000000000000000000000000000AD
:0433200000000000A9
:040000051000014F97
:00000001FF
